:0400000050EF00F0CD
:100008005F82FACF4AF0FBCF4BF0E9CF4CF0EACF52
:100018004DF0E1CF4EF0E2CF4FF0D9CF50F0DACF2C
:1000280051F0F3CF52F0F4CF53F0F6CF54F0F7CFAE
:1000380055F0F8CF56F0F5CF57F0F0B4F0AA05D048
:10004800F09422EC14F081A6F084F2A407D0D58EA7
:10005800F294E10ED76E7B0ED66ED58E57C0F5FFA3
:1000680056C0F8FF55C0F7FF54C0F6FF53C0F4FF61
:1000780052C0F3FF51C0DAFF50C0D9FF4FC0E2FFB2
:100088004EC0E1FF4DC0EAFF4CC0E9FF4BC0FBFF8B
:0C0098004AC0FAFF5F9211008CEF12F0DA
:1010000000000100030101010001020301010101CF
:1010100001000301010103010003010101070102B5
:10102000030101010F01020301010113010606047E
:1010300001011F0107070701010701000301010169
:0110400000AF
:10104200D8C095F0D9C096F0DAC097F0DBC098F01E
:10105200E3C099F0E4C09AF0E5C09BF02FEC13F0E6
:10106200950E00016C6F000E00016D6F040E000101
:101072006E6F000E6F6F000E706F000E716FF5ECE9
:1010820014F02A0E00019A6F83C0F6FF84C0F7FFA6
:101092000800F5CF87F0010E000183250001886F5B
:1010A200000E000184210001896F88C0F6FF89C00B
:1010B200F7FF0800F5CF8AF0060E00018B6F0001E2
:1010C200D8908A3700018B2FFAD700018A5100018C
:1010D200871100019B6F990E00016C6F000E0001D9
:1010E2006D6F030E00016E6F000E6F6F000E706F5A
:1010F200000E716FF5EC14F0290E00019A6F020ECA
:10110200000183250001876F000E00018421000188
:10111200886F87C0F6FF88C0F7FF0800F5CF89F017
:10112200060E0001832500018A6F000E0001842152
:1011320000018B6F8AC0F6FF8BC0F7FF0800F5CF66
:101142008CF0000E8CB1800E8C6F050E0001832591
:1011520000018D6F000E0001842100018E6F8DC091
:10116200F6FF8EC0F7FF0800F5CF8FF0060E0001E4
:10117200906F0001D8908F370001902FFAD7030E9D
:10118200000183250001916F000E000184210001FE
:10119200926F91C0F6FF92C0F7FF0800F5CF93F06F
:1011A2000001D89093370001D89093370001D8906E
:1011B200933500018F1100018C110001891100018A
:1011C2009B6F990E00016C6F000E00016D6F030E94
:1011D20000016E6F000E6F6F000E706F000E716F68
:1011E200F5EC14F0280E00019A6F040E000183251D
:1011F2000001876F000E000184210001886F87C003
:10120200F6FF88C0F7FF0800F5CF89F0010E000154
:10121200832500018A6F000E0001842100018B6F7B
:101222008AC0F6FF8BC0F7FF0800F5CF8CF0060EE0
:1012320000018D6F0001D8908C3700018D2FFAD7F5
:1012420000018C510001891100019B6F990E000170
:101252006C6F000E00016D6F030E00016E6F000EC9
:101262006F6F000E706F000E716FF5EC14F00001DD
:1012720020EE20F08551D9268651DA22DF50000176
:10128200726F85C0D9FF86C0DAFFDECF73F0DECF82
:1012920074F0DECF75F0DECF76F0200E22EC10F087
:1012A200000120EE20F08551D9268651DA22DF5046
:1012B2000001726F000120EE04F08551D92686519B
:1012C200DA22DECF73F0DECF74F0DECF75F0DECF40
:1012D20076F0240E22EC10F0000120EE20F0855171
:1012E200D9268651DA22DF500001726F000120EE0A
:1012F20008F08551D9268651DA22DECF73F0DECF8F
:1013020074F0DECF75F0DECF76F0000E22EC10F036
:10131200000120EE20F08551D9268651DA22DF50D5
:101322000001726F000120EE0CF08551D926865122
:10133200DA22DECF73F0DECF74F0DECF75F0DECFCF
:1013420076F0040E22EC10F0000120EE20F0855120
:10135200D9268651DA22DF500001726F000120EE99
:1013620010F08551D9268651DA22DECF73F0DECF16
:1013720074F0DECF75F0DECF76F0080E22EC10F0BE
:10138200000120EE20F08551D9268651DA22DF5065
:101392000001726F000120EE14F08551D9268651AA
:1013A200DA22DECF73F0DECF74F0DECF75F0DECF5F
:1013B20076F0100E22EC10F0000120EE20F08551A4
:1013C200D9268651DA22DF500001726F000120EE29
:1013D20018F08551D9268651DA22DECF73F0DECF9E
:1013E20074F0DECF75F0DECF76F0140E22EC10F042
:1013F200000120EE20F08551D9268651DA22DF50F5
:101402000001726F000120EE1CF08551D926865131
:10141200DA22DECF73F0DECF74F0DECF75F0DECFEE
:1014220076F0180E22EC10F0000E00019B6F000EF9
:101432000001946F0D0E0001946501D045D00001AA
:101442009451300F00019A6F990E00016C6F000EDB
:1014520000016D6F030E00016E6F000E6F6F000EC4
:10146200706F000E716FF5EC14F000019451400F93
:1014720000019A6F990E00016C6F000E00016D6FF2
:10148200030E00016E6F000E6F6F000E706F000E84
:10149200716FF5EC14F000019451500F00019A6F36
:1014A200990E00016C6F000E00016D6F030E0001BA
:1014B2006E6F000E6F6F000E706F000E716FF5ECA5
:1014C20014F00001942BB6D7000E00019B6F600E42
:1014D20000019A6F990E00016C6F000E00016D6F92
:1014E200030E00016E6F000E6F6F000E706F000E24
:1014F200716FF5EC14F0700E00019A6F990E0001F5
:101502006C6F000E00016D6F030E00016E6F000E16
:101512006F6F000E706F000E716FF5EC14F0600EBD
:101522000001966F640E0001976F000120EE20F01B
:101532008551D9268651DA22DF50D8A402D0240E52
:1015420001D0440E0001986F950E00016C6F000EE1
:1015520000016D6F040E00016E6F000E6F6F000EC2
:10156200706F000E716FF5EC14F0700E0001966F43
:10157200600E0001976F000120EE20F08551D92600
:101582008651DA22DF50D8A402D0200E01D0400EBC
:101592000001986F950E00016C6F000E00016D6FD7
:1015A200040E00016E6F000E6F6F000E706F000E62
:1015B200716FF5EC14F0050E0001956F2B0E000112
:1015C200966F1F0E0001976F1F0E0001986F950E08
:1015D20000016C6F000E00016D6F040E00016E6F52
:1015E200000E6F6F000E706F000E716FF5EC14F04D
:1015F200050E0001956F0F0E0001966FE00E0001BF
:10160200976F000E0001986F950E00016C6F000E2F
:1016120000016D6F040E00016E6F000E6F6F000E01
:10162200706F000E716FF5EC14F012008AEC14F07A
:10163200010E0001BE6F000E00016D6F000E6C6F97
:1016420000016DBF0AD000016D5106E10C0E0001D0
:101652006C5DD8B0120001D01200000E0001666F5E
:10166200040E0001676F6CC068F06DC069F0000184
:10167200683B693BF00E691768510F0B6913F00E56
:1016820068170001AF5100016813000E69130001D1
:10169200665100016813000167510001691368C0B7
:1016A200B1F069C0B2F00001000EB2BFFF0EB36F1D
:1016B200B46FB00E0001606F000E0001616F77EC35
:1016C2000DF0C10E0001606F000E0001616F4AEC67
:1016D2000EF00009D8A4F5D7000E00016F6F000EBE
:1016E2006E6F00016FBF0AD000016F5106E1030E59
:1016F20000016E5DD8B017D101D015D16CC060F079
:101702006DC061F0000E0001636F0C0E626FC5ECDC
:1017120014F0000E0001666F020E0001676F0001F7
:101722006051000166270001615100016723D890D2
:1017320000016E35D96E00016F35DA6ED890D93658
:10174200DA3600016651D92600016751DA22C70E46
:1017520000016E25E16E000E00016F21E26EE7507E
:10176200030BDF6E6CC060F06DC061F0000E000113
:10177200636F0C0E626FC5EC14F06EC066F06FC042
:1017820067F00001D890663767370001D890663756
:101792006737010E00016627000E6723000E000165
:1017A200686F020E0001696F00016651000168272F
:1017B20000016751000169230001605100016825A1
:1017C200D96E0001615100016921DA6EC70E000174
:1017D2006E25E16E000E00016F21E26EE7500001FE
:1017E2006A6F0001D8906A330001D8906A31030B06
:1017F200DF6E6CC060F06DC061F0000E0001636FBF
:101802000C0E626FC5EC14F06EC066F06FC067F02C
:101812000001D890663767370001D890663767377E
:10182200020E00016627000E6723000E0001686F9A
:10183200020E0001696F0001665100016827000174
:101842006751000169230001605100016825D96ECA
:101852000001615100016921DA6EC70E00016E2597
:10186200E16E000E00016F21E26EE75000016A6F27
:1018720000016A390F0B030BDF6E6CC060F06DC0A4
:1018820061F0000E0001636F0C0E626FC5EC14F084
:101892006EC066F06FC067F00001D8906637673798
:1018A2000001D89066376737030E00016627000EE5
:1018B2006723000E0001686F020E0001696F0001CC
:1018C2006651000168270001675100016923000188
:1018D200605100016825D96E000161510001692142
:1018E200DA6EC70E00016E25E16E000E00016F2157
:1018F200E26EE75000016A6F060E00016B6F000195
:10190200D8906A3300016B2FFAD700016A51030B9A
:10191200DF6E00016E4B6F2B00016FBFEFD600012F
:101922006F5101E1E4D68AEC14F000016C4B6D2B8F
:1019320000016DBF92D600016D5101E187D6120000
:10194200296E20EED2F010EE2AF0050EDBCFE3FF77
:10195200E806FCE229C02BF013C0D9FF14C0DAFF5D
:10196200000EDF6E15C0D9FF16C0DAFFDE6ADE6A2E
:10197200DE6ADD6A2A0E0D6E000E0E6E060E0F6E08
:10198200000E106E000E116E000E126E1DEC15F0A0
:101992002DC017F0050E186ED8901732182EFCD7EE
:1019A2002C50196E1A6AD89019361A36D8901936F0
:1019B2001A36D89019361A36175019241B6E000E93
:1019C2001A201C6E1D6A1CBE1D061D501E6E15C0FF
:1019D200D9FF16C0DAFF1BC0DEFF1CC0DEFF1DC030
:1019E200DEFF1EC0DEFF2DA6120015C0D9FF16C0F5
:1019F200DAFFDECF17F0DECF18F0DECF19F0DECF40
:101A02001AF0020ED8901736183619361A36E82E02
:101A1200F9D72DC01BF0030E1B161B5017241C6E8A
:101A2200000E18201D6E000E19201E6E000E1A20C8
:101A32001F6E15C0D9FF16C0DAFF1CC0DEFF1DC025
:101A4200DEFF1EC0DEFF1FC0DEFF15C0D9FF16C0BD
:101A5200DAFF100ED890DE36DE36DE36DD36D906F7
:101A6200D906E82EF7D715C0D9FF16C0DAFFDECFA8
:101A720017F0DECF18F0DECF19F0DECF1AF02E50BD
:101A82001C6E1B6A1BC01DF01CC01EF0000E1EBE89
:101A9200FF0E1F6E206E2F501D24216E000E1E2081
:101AA200226E000E1F20236E000E2020246E17507F
:101AB2002124256E18502220266E19502320276ECD
:101AC2001A502420286E15C0D9FF16C0DAFF25C08F
:101AD200DEFF26C0DEFF27C0DEFF28C0DEFF13C008
:101AE200D9FF14C0DAFF010EDF6E1200040E0001EE
:101AF200AB611200000120EE05F06051D926615160
:101B0200DA220001AC51110D050EF326000EF4226B
:101B1200000EF324E16E010EF420E26EDFCFE7FF48
:101B220060C0D9FF61C0DAFF0001AC51110D000E97
:101B3200F324E16E010EF420E26EDFCFE7FF000135
:101B420020EE0FF06051D9266151DA220001AC512A
:101B5200110D0F0EF326000EF422000EF324E16E97
:101B6200010EF420E26EDFCFE7FF000120EE01F06C
:101B72006051D9266151DA220001AC51110D010EDA
:101B8200F326000EF422000EF324E16E010EF4207F
:101B9200E26EDECFE6FFDECFE6FFDECFE6FFDECF90
:101BA200E6FF000120EE0EF06051D9266151DA22E3
:101BB2000001AC51110D0E0EF326000EF422000EA0
:101BC200F324E16E010EF420E26EDFCFE7FF0001A5
:101BD20020EE10F06051D9266151DA220001AC5199
:101BE200110D100EF326000EF422000EF324E16E06
:101BF200010EF420E26EDFCFE7FF000E0001646FFA
:101C020031D000016451010D060EF326000EF422BC
:101C1200F35000016025D96EF45000016121DA6EA3
:101C220000016451010D060EF326000EF422000E8F
:101C32000001626F010E0001636FF3500001622721
:101C4200F450000163230001AC51110DF350000167
:101C52006225E16EF45000016321E26EDFCFE7FFFF
:101C62000001642B000120EE05F06051D92661517C
:101C7200DA22DE500001645DD8A0C3D7F09A0001D9
:101C8200AB2B0001AC29030B0001AC6FF08AF0848E
:101C920012005950D8B4B8D00001AD51110D050E43
:101CA200F326000EF422440EF324D96E010EF42022
:101CB200DA6E000110EE05F06051E1266151E22278
:101CC200DFCFE7FF0001AD51110D440EF324D96EB1
:101CD200010EF420DA6E60C0E1FF61C0E2FFDFCFE7
:101CE200E7FF0001AD51110D0F0EF326000EF42295
:101CF200440EF324D96E010EF420DA6E000110EEC8
:101D02000FF06051E1266151E222DFCFE7FF0001CF
:101D1200AD51110D010EF326000EF422440EF324F0
:101D2200D96E010EF420DA6E000110EE01F060515E
:101D3200E1266151E222DECFE6FFDECFE6FFDECF13
:101D4200E6FFDECFE6FF0001AD51110D0E0EF326C8
:101D5200000EF422440EF324D96E010EF420DA6E42
:101D6200000110EE0EF06051E1266151E222DFCF58
:101D7200E7FF000E0001646F31D000016451010DD4
:101D8200060EF326000EF422440E0001626F010ECD
:101D92000001636FF35000016227F45000016323D6
:101DA2000001AD51110DF35000016225D96EF450BE
:101DB20000016321DA6E00016451010D060EF32663
:101DC200000EF422F35000016025E16EF450000190
:101DD2006121E26EDFCFE7FF0001642B000120EEFC
:101DE20005F06051D9266151DA22DE500001645DAE
:101DF200D8A0C3D7F09A0001AD29030B0001AD6F43
:101E02005906F08A000E1200010E1200326E32C024
:101E120034F0020E286E3450050F296E000E356E16
:101E22001CD03550010D060EF326000EF422F3509D
:101E32002424D96EF4502520DA6E3550266E276A96
:101E4200020E2626000E2722280E2624E16E000E00
:101E52002720E26EDFCFE7FF352A20EE05F024507F
:101E6200D9262550DA22DE50355CD8A0DAD7280EE2
:101E72000D6E000E0E6E20EE05F02450D926255070
:101E8200DA22DF50266E276A020E2626000E27224D
:101E920026C00FF027C010F0000E10BEFF0E116E0C
:101EA200126E0AEC15F024C0D9FF25C0DAFFDF500C
:101EB200136E20EE01F02450D9262550DA22DECF0F
:101EC20014F0DECF15F0DECF16F0DECF17F034506F
:101ED20020EC11F020EE05F02450D9262550DA220C
:101EE200DF50336E20EE0EF02450D9262550DA2230
:101EF200DE04D8A409D020EE05F02450D9262550BE
:101F0200DA22DF504009336E020E286E3450040F7D
:101F1200296E33C02AF0280E0D6E000E0E6E030ECF
:101F22000F6E000E106E000E116E000E126E0AEC95
:101F320015F012003E6E30C013F031C014F0010EE5
:101F42003024156E000E3120166E3E50A1EC0CF0BE
:101F5200030E346E3E04356E340E0D6E000E0E6EA0
:101F6200030E0F6E000E106E000E116E000E126E3A
:101F72001DEC15F020EE0EF03050D9263150DA2249
:101F8200000EDF6E36A608D020EE0EF03050D926B5
:101F92003150DA22010EDF6E030E346E3E50040F12
:101FA200356E340E0D6E000E0E6E030E0F6E000EA9
:101FB200106E000E116E000E126E1DEC15F020EE6A
:101FC20005F03050D9263150DA2236500F0BDF6E31
:101FD200030E346E3E50050F356E340E0D6E000E3C
:101FE2000E6E20EE05F03050D9263150DA22DF5045
:101FF200326E336A020E3226000E332232C00FF0E6
:1020020033C010F0000E10BEFF0E116E126E1DECEA
:1020120015F0060E3024016E000E3120026E360ECF
:10202200036E000E046E20EE05F03050D9263150BA
:10203200DA22DF50326E3250056E066A68EC14F016
:10204200120000017A6F73C081F074C082F0020E38
:1020520000017B6F7AC07CF000017205D8A434D0F5
:1020620081C080F00001825100017F6F75C081F054
:1020720076C082F000018151030B00017E6F81C0A6
:1020820077F01C0E000177170001D8907737000116
:10209200D89077370001D890773500017E2700016C
:1020A2007E8781C077F082C078F0050E0001796FDB
:1020B2000001D890783377330001792FF9D70001E6
:1020C200775100017D6F2CD081C077F082C078F00B
:1020D2000001D890783377330001D8907833773382
:1020E2000001D890783377330001775100017D6F7A
:1020F20081C077F0070E00017717050E0001786F97
:102102000001D89077370001782FFAD70001775174
:1021120000017E6F000E0001806F000E00017F6FD4
:102122007B0E00016C6F000E00016D6F060E000148
:102132006E6F000E6F6F000E706F000E716FF5EC18
:1021420014F01200A00E416E410E0D6E000E0E6EC6
:10215200020E0F6E000E106E000E116E000E126E49
:102162001DEC15F042A034D03FC030F040C031F039
:10217200610E9BEC0FF0050E416E2C0E426E010EAD
:10218200436E000E446E410E0D6E000E0E6E040E76
:102192000F6E000E106E000E116E000E126E0AEC23
:1021A20015F0050E416E2B0E426E010E436E446811
:1021B200410E0D6E000E0E6E040E0F6E000E106EAE
:1021C200000E116E000E126E0AEC15F0000E1200D7
:1021D20042A233D03FC030F040C031F0710E9BECD0
:1021E2000FF0050E416E2C0E426E020E436E000E73
:1021F200446E410E0D6E000E0E6E040E0F6E000E3A
:10220200106E000E116E000E126E0AEC15F0050E25
:10221200416E2B0E426E020E436E4468410E0D6EED
:10222200000E0E6E040E0F6E000E106E000E116E7A
:10223200000E126E0AEC15F0C9D7040E12001B6EC6
:1022420014C022F015C023F0020E1C6E1BC01DF03C
:102252001304D8A425D022C021F02350206E16C02A
:1022620022F017C023F02250030B1F6E22C018F079
:102272001C0E1816D8901836D8901836D8901834E4
:102282001F261F8622C018F023C019F0050E1A6EF1
:10229200D890193218321A2EFBD718501E6E1FD042
:1022A20022C018F023C019F0D89019321832D890F1
:1022B20019321832D8901932183218501E6E22C0B4
:1022C20018F0070E1816050E196ED8901836192E2A
:1022D200FCD718501F6E000E216E000E206E1C0ED1
:1022E2000D6E000E0E6E060E0F6E000E106E000EBC
:1022F200116E000E126E0AEC15F012003A0EC66E46
:102302008C92000E0001686F000E696F000E6A6FFA
:10231200000E6B6F28D00001685100016025D96E54
:102322000001695100016121DA6EDF50C96E9EA67B
:10233200FED79E960001625100016311D8B40CD001
:102342000001685100016225D96E00016951000146
:102352006321DA6EC9CFDFFF010E00016827000E8C
:1023620069236A236B23000164510001685D000147
:102372006551000169590001665100016A59000165
:10238200675100016B59D8A0C6D78C821200E0C0F9
:1023920016F0E1C017F0E2C018F013C0D9FF14C064
:1023A200DAFF000EDF6E000E1C6E020E1C6401D0FE
:1023B20030D0030E196E1C50010D160EF324D96E87
:1023C200000EF420DA6EDF501A6E190E0D6E000E3A
:1023D2000E6E030E0F6E000E106E000E116E000ECA
:1023E200126E1DEC15F01BB612D01C50010D160E0C
:1023F200F324D96E000EF420DA6EDF50156E152824
:1024020013C0D9FF14C0DAFFDF6E000E12001C2ABF
:10241200CCD7020E120000016A6F000E0001666F37
:10242200010E0001676F00016A510001686F696B5C
:102432000001683B693BF00E691768510F0B691385
:10244200F00E68170001AF5100016813000E691306
:102452000001665100016813000167510001691310
:1024620068C0B1F069C0B2F00001000EB2BFFF0E49
:10247200B36FB46F000E0001BE6F65C0B6F0010EFF
:102482000001B56FB00E0001606F000E0001616FB8
:1024920077EC0DF01200390E00019C6F100E000156
:1024A2009D6F880E00019E6F010E00019F6FA9ECC7
:1024B20014F0F28CF28EF7EC13F00001AF6F0F0EF6
:1024C2000101886F000E896F000E8A6F000E8B6FFC
:1024D2000001AF510101906F916B926B936B390EBA
:1024E20000019C6F100E00019D6F880E00019E6F0F
:1024F200010E00019F6FA9EC14F017EC0BF0D59CB4
:10250200D59AD596D580D582D584E10ED76E7B0E2D
:10251200D66ED58E1200800EF66E2A0EF76E000E63
:10252200F86E00EED2F010EE17F00900F5CFEEFFD4
:10253200E550E150FAE19E0EF66E2A0EF76E000E9D
:10254200F86E0900F5CF5EF002EE00F0900EEE6A32
:10255200E806FDE101EE00F0A90EEE6AE806FDE1F3
:1025620000EEA5F02D0EEE6AE806FDE15D6A5C6AFA
:102572005B6A5A6A596A586A5F905F92000EF86EF7
:10258200100EF76E0001E0EF14F03A0EC66E8C9258
:10259200000E096E000E0A6E000E0B6E000E0C6E1F
:1025A2001DD009500124D96E0A500220DA6EDF5084
:1025B200C96E9EA6FED79E9603500410D8B408D0CA
:1025C20009500324D96E0A500420DA6EC9CFDFFF06
:1025D200010E0926000E0A220B220C220550095C6C
:1025E20006500A5807500B5808500C58D8A0D9D793
:1025F2008C8212000001686F000168510001666F51
:10260200676B0001663B673BF00E671766510F0B65
:102612006713F00E66170001AF5100016613000E3A
:1026220067130001668F66C0B1F067C0B2F00001A7
:10263200000EB2BFFF0EB36FB46F000E0001BE6F8B
:1026420065C0B6F0010E0001B56FB00E0001606FFB
:10265200000E0001616F77EC0DF01200C00E000158
:10266200726F720E00016C6F000E00016D6F010E31
:1026720000016E6F000E6F6F000E706F000E716FB3
:10268200F5EC14F0000E0001736F000E746F000E73
:10269200756F000E766F000176510001751110E121
:1026A200100E0001735D270E00017459D8B012009C
:1026B200010E00017327000E742375237623EBD7D6
:1026C20012000001686F000168510001666F676BBC
:1026D2000001663B673BF00E671766510F0B6713ED
:1026E200F00E66170001AF5100016613000E67136A
:1026F20066C0B1F067C0B2F00001000EB2BFFF0EBB
:10270200B36FB46F000E0001BE6F65C0B6F0010E6C
:102712000001B56FB00E0001606F000E0001616F25
:1027220077EC0DF012003D0E136E000E146EC8EC25
:1027320011F03C6E020E3C18D8B4F5D7020E3C18CC
:10274200D8B4120036C024F037C025F03D5007EC53
:102752000FF0020E386E3D04396E20EE10F0365046
:10276200D9263750DA22DF5008093A6E380E0D6E3C
:10277200000E0E6E030E0F6E000E106E000E116E26
:10278200000E126E0AEC15F01200E6C017F0E7C058
:1027920018F0E8C019F0DCC013F0DDC014F0DEC0A0
:1027A20015F0DFC016F0170E0D6E000E0E6E030E42
:1027B2000F6E000E106E000E116E000E126E1DECEA
:1027C20015F019C01AF01A501C0B156E130E0D6E6F
:1027D200000E0E6E040E0F6E000E106E000E116EC5
:1027E200000E126E1DEC15F01A501200000E0001C0
:1027F200656F0F0E0001B16F050EB26F000EB36F61
:10280200000EB46F8AEC14F0010E0001CF6FB00E0F
:102812000001606F000E0001616F77EC0DF0C10ED8
:102822000001606F000E0001616F4AEC0EF00009BA
:10283200D8A4F5D7C7C065F08AEC14F00001655141
:102842001200C6EC13F0496E49C048F0030E481658
:10285200D8A446EC14F049C048F01C0E4816D8B46F
:102862000BD049B85E2A49B65E2A49A405D05E2A31
:1028720003D030EC15F05E064CEC15F00009D8B42C
:1028820012005E50D8B41200F4D7000E456E000E4E
:10289200476E010E476401D012005A50110D440ECA
:1028A200F3243F6E010EF420406EA3EC10F0466E4E
:1028B200040E596008D04650D8A407D0592A5A2885
:1028C200030B5A6E02D0010E456E472AE2D703C0AF
:1028D20009F004C00AF001C007F002C008F010D0ED
:1028E20009C0D9FF0AC0DAFFDF500B6E094A0A2A73
:1028F20007C0D9FF08C0DAFF0BC0DFFF074A082A6A
:102902000506D8A006060528EBE10628D8B4120071
:10291200E7D7000E0001616F000E606F000161BF1A
:1029220008D00001615113E1040E0001605DD8B0CE
:102932001200C70E00016025D96E000E0001612150
:10294200DA6E000EDF6E0001604B612BE7D71200DA
:10295200979C979E8E8C8E9E9488949A949695922C
:10296200C79CC6883A0EC66EC68A9CC083F09DC0BC
:1029720084F09EC085F09FC086F021EC08F0F08ABA
:10298200F196F28CF28E1200000160510001620396
:10299200F3CF64F0F4CF65F00001605100016303EE
:1029A200F350000165270001615100016203F350F9
:1029B2000001652764C060F065C061F012004CEC54
:1029C20012F0030E0001656F010E62EC13F0010EAE
:1029D2000001656F000E0CEC12F0020E0001656F33
:1029E200000EFBEC12F0FFD76CC060F06DC061F01E
:1029F200000E0001626F000E0001636F6EC064F092
:102A02006FC065F070C066F071C067F07FEC11F0C6
:102A120012000DC001F00EC002F0000E036E000E97
:102A2200046E0FC005F010C006F011C007F012C00E
:102A320008F0C6EC12F012000DC001F00EC002F058
:102A42000DC003F00EC004F00FC005F010C006F078
:102A520011C007F012C008F0C6EC12F01200585074
:102A6200110D000EF324366E010EF420376E94EC35
:102A720013F05828030B586E0001AB071200030035
:102A820000000000050FE080052C1C0030405002C1
:052A92000000032C0010
:072A98000001AB5112000325
:020000040020DA
:08000000FFFFFFFFFFFFFFFF00
:020000040030CA
:0E00000008181000F98A01FFFFC0FFE0FF4062
:00000001FF
