:0400000052EF00F0CB
:100008005F82FACF4AF0FBCF4BF0E9CF4CF0EACF52
:100018004DF0E1CF4EF0E2CF4FF0D9CF50F0DACF2C
:1000280051F0F3CF52F0F4CF53F0F6CF54F0F7CFAE
:1000380055F0F8CF56F0F5CF57F0F0B4F0AA05D048
:10004800F094E5EC18F081A6F084F2A409D0D58EDE
:10005800A3EC19F0F294E10ED76E7B0ED66ED58E16
:1000680057C0F5FF56C0F8FF55C0F7FF54C0F6FF5C
:1000780053C0F4FF52C0F3FF51C0DAFF50C0D9FF9C
:100088004FC0E2FF4EC0E1FF4DC0EAFF4CC0E9FFA0
:100098004BC0FBFF4AC0FAFF5F92110004EF17F054
:1010000000000100030101010001020301010101CF
:1010100001000301010103010003010101070102B5
:10102000030101010F01020301010113010606047E
:1010300001011F0107070701010701000301010169
:0110400000AF
:10104200EFC095F0F0C096F0F1C097F0F2C098F0C2
:10105200FAC099F0FBC09AF0FCC09BF06FEC17F05D
:10106200950E00016C6F000E00016D6F040E000101
:101072006E6F000E6F6F000E706F000E716FB9EC25
:1010820019F02A0E00019A6F83C0F6FF84C0F7FFA1
:10109200000EF86E0800F5CF87F0010E00018325DF
:1010A2000001886F000E000184210001896F88C051
:1010B200F6FF89C0F7FF000EF86E0800F5CF8AF040
:1010C200060E00018B6F0001D8908A3700018B2F2A
:1010D200FAD700018A510001871100019B6F990E16
:1010E20000016C6F000E00016D6F030E00016E6F48
:1010F200000E6F6F000E706F000E716FB9EC19F079
:10110200290E00019A6F020E000183250001876FEC
:10111200000E000184210001886F87C0F6FF88C09D
:10112200F7FF000EF86E0800F5CF89F0060E0001F9
:10113200832500018A6F000E0001842100018B6F5C
:101142008AC0F6FF8BC0F7FF000EF86E0800F5CFDD
:101152008CF0000E8CB1800E8C6F050E0001832581
:1011620000018D6F000E0001842100018E6F8DC081
:10117200F6FF8EC0F7FF000EF86E0800F5CF8FF075
:10118200060E0001906F0001D8908F370001902F5A
:10119200FAD7030E000183250001916F000E0001B2
:1011A20084210001926F91C0F6FF92C0F7FF000EFA
:1011B200F86E0800F5CF93F00001D8909337000144
:1011C200D89093370001D890933500018F11000118
:1011D2008C110001891100019B6F990E00016C6F47
:1011E200000E00016D6F030E00016E6F000E6F6F37
:1011F200000E706F000E716FB9EC19F0280E00012D
:101202009A6F040E000183250001876F000E000112
:1012120084210001886F87C0F6FF88C0F7FF000EA7
:10122200F86E0800F5CF89F0010E00018325000158
:101232008A6F000E0001842100018B6F8AC0F6FFC5
:101242008BC0F7FF000EF86E0800F5CF8CF0060E8B
:1012520000018D6F0001D8908C3700018D2FFAD7D5
:1012620000018C510001891100019B6F990E000150
:101272006C6F000E00016D6F030E00016E6F000EA9
:101282006F6F000E706F000E716FB9EC19F00001F4
:1012920020EE20F08551D9268651DA22DF50000156
:1012A200726F85C0D9FF86C0DAFFDECF73F0DECF62
:1012B20074F0DECF75F0DECF76F0200E35EC13F051
:1012C200000120EE20F08551D9268651DA22DF5026
:1012D2000001726F000120EE04F08551D92686517B
:1012E200DA22DECF73F0DECF74F0DECF75F0DECF20
:1012F20076F0240E35EC13F0000120EE20F085513B
:10130200D9268651DA22DF500001726F000120EEE9
:1013120008F08551D9268651DA22DECF73F0DECF6E
:1013220074F0DECF75F0DECF76F0000E35EC13F000
:10133200000120EE20F08551D9268651DA22DF50B5
:101342000001726F000120EE0CF08551D926865102
:10135200DA22DECF73F0DECF74F0DECF75F0DECFAF
:1013620076F0040E35EC13F0000120EE20F08551EA
:10137200D9268651DA22DF500001726F000120EE79
:1013820010F08551D9268651DA22DECF73F0DECFF6
:1013920074F0DECF75F0DECF76F0080E35EC13F088
:1013A200000120EE20F08551D9268651DA22DF5045
:1013B2000001726F000120EE14F08551D92686518A
:1013C200DA22DECF73F0DECF74F0DECF75F0DECF3F
:1013D20076F0100E35EC13F0000120EE20F085516E
:1013E200D9268651DA22DF500001726F000120EE09
:1013F20018F08551D9268651DA22DECF73F0DECF7E
:1014020074F0DECF75F0DECF76F0140E35EC13F00B
:10141200000120EE20F08551D9268651DA22DF50D4
:101422000001726F000120EE1CF08551D926865111
:10143200DA22DECF73F0DECF74F0DECF75F0DECFCE
:1014420076F0180E35EC13F0000E00019B6F000EC3
:101452000001946F0D0E0001946501D045D000018A
:101462009451300F00019A6F990E00016C6F000EBB
:1014720000016D6F030E00016E6F000E6F6F000EA4
:10148200706F000E716FB9EC19F000019451400FAA
:1014920000019A6F990E00016C6F000E00016D6FD2
:1014A200030E00016E6F000E6F6F000E706F000E64
:1014B200716FB9EC19F000019451500F00019A6F4D
:1014C200990E00016C6F000E00016D6F030E00019A
:1014D2006E6F000E6F6F000E706F000E716FB9ECC1
:1014E20019F00001942BB6D7000E00019B6F600E1D
:1014F20000019A6F990E00016C6F000E00016D6F72
:10150200030E00016E6F000E6F6F000E706F000E03
:10151200716FB9EC19F0700E00019A6F990E00010B
:101522006C6F000E00016D6F030E00016E6F000EF6
:101532006F6F000E706F000E716FB9EC19F0600ED4
:101542000001966F640E0001976F000120EE20F0FB
:101552008551D9268651DA22DF50D8A402D0240E32
:1015620001D0440E0001986F950E00016C6F000EC1
:1015720000016D6F040E00016E6F000E6F6F000EA2
:10158200706F000E716FB9EC19F0700E0001966F5A
:10159200600E0001976F000120EE20F08551D926E0
:1015A2008651DA22DF50D8A402D0200E01D0400E9C
:1015B2000001986F950E00016C6F000E00016D6FB7
:1015C200040E00016E6F000E6F6F000E706F000E42
:1015D200716FB9EC19F0050E0001956F2B0E000129
:1015E200966F1F0E0001976F1F0E0001986F950EE8
:1015F20000016C6F000E00016D6F040E00016E6F32
:10160200000E6F6F000E706F000E716FB9EC19F063
:10161200050E0001956F0F0E0001966FE00E00019E
:10162200976F000E0001986F950E00016C6F000E0F
:1016320000016D6F040E00016E6F000E6F6F000EE1
:10164200706F000E716FB9EC19F012004DEC19F0C9
:10165200010E0001D56F000E00016D6F000E6C6F60
:1016620000016DBF0AD000016D5106E10C0E0001B0
:101672006C5DD8B0120001D01200000E0001666F3E
:10168200040E0001676F6CC068F06DC069F0000164
:10169200683B693BF00E691768510F0B6913F00E36
:1016A20068170001C65100016813000E691300019A
:1016B200665100016813000167510001691368C097
:1016C200C8F069C0C9F00001000EC9BFFF0ECA6FA1
:1016D200CB6FC70E0001606F000E0001616F61ECFD
:1016E2000EF0D80E0001606F000E0001616FB2ECC7
:1016F20010F00009D8A4F5D7000E00016F6F000E9C
:101702006E6F00016FBF0AD000016F5106E1030E38
:1017120000016E5DD8B017D101D015D16CC060F058
:101722006DC061F0000E0001636F0C0E626F88ECF9
:1017320019F0000E0001666F020E0001676F0001D2
:101742006051000166270001615100016723D890B2
:1017520000016E35D96E00016F35DA6ED890D93638
:10176200DA3600016651D92600016751DA22DE0E0F
:1017720000016E25E16E000E00016F21E26EE7505E
:10178200030BDF6E6CC060F06DC061F0000E0001F3
:10179200636F0C0E626F88EC19F06EC066F06FC05A
:1017A20067F00001D890663767370001D890663736
:1017B2006737010E00016627000E6723000E000145
:1017C200686F020E0001696F00016651000168270F
:1017D2000001675100016923000160510001682581
:1017E200D96E0001615100016921DA6EDE0E00013D
:1017F2006E25E16E000E00016F21E26EE7500001DE
:101802006A6F0001D8906A330001D8906A31030BE5
:10181200DF6E6CC060F06DC061F0000E0001636F9E
:101822000C0E626F88EC19F06EC066F06FC067F044
:101832000001D890663767370001D890663767375E
:10184200020E00016627000E6723000E0001686F7A
:10185200020E0001696F0001665100016827000154
:101862006751000169230001605100016825D96EAA
:101872000001615100016921DA6EDE0E00016E2560
:10188200E16E000E00016F21E26EE75000016A6F07
:1018920000016A390F0B030BDF6E6CC060F06DC084
:1018A20061F0000E0001636F0C0E626F88EC19F09C
:1018B2006EC066F06FC067F00001D8906637673778
:1018C2000001D89066376737030E00016627000EC5
:1018D2006723000E0001686F020E0001696F0001AC
:1018E2006651000168270001675100016923000168
:1018F200605100016825D96E000161510001692122
:10190200DA6EDE0E00016E25E16E000E00016F211F
:10191200E26EE75000016A6F060E00016B6F000174
:10192200D8906A3300016B2FFAD700016A51030B7A
:10193200DF6E00016E4B6F2B00016FBFEFD600010F
:101942006F5101E1E4D64DEC19F000016C4B6D2BA7
:1019520000016DBF92D600016D5101E187D61200E0
:101962004AEC16F0CDEC16F0D80E0001606F000EB6
:101972000001616FB2EC10F0800E0001D915000178
:10198200A96F070E0001DA150001AA6FD9C0A5F0F0
:10199200DAC0A6F0DBC0A7F0DCC0A8F0050E06D0C6
:1019A2000001D890A833A733A633A533E82EF8D781
:1019B2000001A551070B0001AE6F93D00001AE519B
:1019C200010D000EF324D96E010EF420DA6EDE044E
:1019D200D8A408D00001DE51D8A404D00001AE5131
:1019E200B4EC14F00001AE51010D000EF324D96ED7
:1019F200010EF420DA6EDEC0DFFF000E0001AB6FD5
:101A0200000E0001AC6F0B0E0001AC6501D014D0CA
:101A12000001AC51010DAF0EF324D96E000EF4207B
:101A2200DA6E0001AE51DE18D8A403D0010E000117
:101A3200AB6F0001AC2BE7D70001AB510001D8A47A
:101A420093D70001AE5109EC1AF08ED7080E0001AF
:101A5200AE270001AE51010D000EF324D96E010E26
:101A6200F420DA6EDE04D8A408D00001DE51D8A436
:101A720004D00001AE51B4EC14F00001AE51010DDE
:101A8200000EF324D96E010EF420DA6EDEC0DFFF01
:101A9200000E0001AB6F000E0001AD6F0B0E0001D6
:101AA200AD6501D014D00001AD51010DAF0EF3248C
:101AB200D96E000EF420DA6E0001AE51DE18D8A401
:101AC20003D0010E0001AB6F0001AD2BE7D700017F
:101AD200AB510001D8A448D70001AE5109EC1AF06D
:101AE20043D7A9C0A5F0AAC0A6F00001A651010AD9
:101AF200D8B404D0030AD8B407D036D70001A55110
:101B0200800AD8B45BD730D70001A551000AD8B4F7
:101B12009DD72AD7296E20EEE9F010EE2AF0050EA5
:101B2200DBCFE3FFE806FCE229C02BF013C0D9FFAC
:101B320014C0DAFF000EDF6E15C0D9FF16C0DAFF3F
:101B4200DE6ADE6ADE6ADD6A2A0E0D6E000E0E6E37
:101B5200060E0F6E000E106E000E116E000E126E4B
:101B6200F6EC19F02DC017F0050E186ED89017324A
:101B7200182EFCD72C50196E1A6AD89019361A36BC
:101B8200D89019361A36D89019361A3617501924A1
:101B92001B6E000E1A201C6E1D6A1CBE1D061D50F7
:101BA2001E6E15C0D9FF16C0DAFF1BC0DEFF1CC0B7
:101BB200DEFF1DC0DEFF1EC0DEFF2DA6120015C017
:101BC200D9FF16C0DAFFDECF17F0DECF18F0DECF76
:101BD20019F0DECF1AF0020ED890173618361936E1
:101BE2001A36E82EF9D72DC01BF0030E1B161B5018
:101BF20017241C6E000E18201D6E000E19201E6E7A
:101C0200000E1A201F6E15C0D9FF16C0DAFF1CC0C5
:101C1200DEFF1DC0DEFF1EC0DEFF1FC0DEFF15C0DF
:101C2200D9FF16C0DAFF100ED890DE36DE36DE3669
:101C3200DD36D906D906E82EF7D715C0D9FF16C06A
:101C4200DAFFDECF17F0DECF18F0DECF19F0DECFED
:101C52001AF02E501C6E1B6A1BC01DF01CC01EF019
:101C6200000E1EBEFF0E1F6E206E2F501D24216E11
:101C7200000E1E20226E000E1F20236E000E20205A
:101C8200246E17502124256E18502220266E1950DA
:101C92002320276E1A502420286E15C0D9FF16C0A3
:101CA200DAFF25C0DEFF26C0DEFF27C0DEFF28C028
:101CB200DEFF13C0D9FF14C0DAFF010EDF6E12007F
:101CC200040E0001C1611200000120EE05F0605116
:101CD200D9266151DA220001C251110D050EF326F7
:101CE200000EF422240EF324E16E010EF420E26EC3
:101CF200DFCFE7FF60C0D9FF61C0DAFF0001C25148
:101D0200110D240EF324E16E010EF420E26EDFCFFA
:101D1200E7FF000120EE0FF06051D9266151DA226F
:101D22000001C251110D0F0EF326000EF422240EF3
:101D3200F324E16E010EF420E26EDFCFE7FF000133
:101D420020EE01F06051D9266151DA220001C25120
:101D5200110D010EF326000EF422240EF324E16E7F
:101D6200010EF420E26EDECFE6FFDECFE6FFDECF2D
:101D7200E6FFDECFE6FF000120EE0EF06051D9262D
:101D82006151DA220001C251110D0E0EF326000E2E
:101D9200F422240EF324E16E010EF420E26EDFCF72
:101DA200E7FF000120EE10F06051D9266151DA22DE
:101DB2000001C251110D100EF326000EF422240E62
:101DC200F324E16E010EF420E26EDFCFE7FF000E96
:101DD2000001646F31D000016451010D060EF3263B
:101DE200000EF422F35000016025D96EF450000178
:101DF2006121DA6E00016451010D060EF326000E18
:101E0200F422240E0001626F010E0001636FF35091
:101E120000016227F450000163230001C251110D39
:101E2200F35000016225E16EF45000016321E26E7D
:101E3200DFCFE7FF0001642B000120EE05F06051C7
:101E4200D9266151DA22DE500001645DD8A0C3D7E1
:101E5200F09A0001C12B0001C229030B0001C26FDD
:101E6200F08AF0841200040E0001C161120020EE1B
:101E720005F00150D9260250DA220001C251110D9B
:101E8200050EF326000EF422240EF324E16E010E59
:101E9200F420E26EDFCFE7FF01C0D9FF02C0DAFF14
:101EA2000001C251110D240EF324E16E010EF42043
:101EB200E26EDFCFE7FF20EE0FF00150D92602508D
:101EC200DA220001C251110D0F0EF326000EF42288
:101ED200240EF324E16E010EF420E26EDFCFE7FF61
:101EE20020EE01F00150D9260250DA220001C2513F
:101EF200110D010EF326000EF422240EF324E16EDE
:101F0200010EF420E26EDECFE6FFDECFE6FFDECF8B
:101F1200E6FFDECFE6FF20EE0EF00150D92602509A
:101F2200DA220001C251110D0E0EF326000EF42228
:101F3200240EF324E16E010EF420E26EDFCFE7FF00
:101F420020EE10F00150D9260250DA220001C251CF
:101F5200110D100EF326000EF422240EF324E16E6E
:101F6200010EF420E26EDFCFE7FF000E056E26D0F1
:101F72000550010D060EF326000EF422F350012443
:101F8200D96EF4500220DA6E0550010D060EF326CA
:101F9200000EF422240E036E010E046EF35003268B
:101FA200F45004220001C251110DF3500324E16EDA
:101FB200F4500420E26EDFCFE7FF052A20EE05F0A1
:101FC2000150D9260250DA22DE50055CD8A0D0D7C3
:101FD200F09A0001C12B0001C229030B0001C26F5C
:101FE200F08AF0841200000E0F6EB6D00F50010D71
:101FF200AF0EF324D96E000EF420DA6EDF50126EAB
:10200200000E116E0B0E116401D0A5D011C001F0AB
:102012001250CEEC19F0106E1050D8A41DD01250F0
:10202200010D0C0EF324D96E010EF420DA6EDF508E
:10203200D8A48FD01250010D180EF324D96E010EC0
:10204200F420DA6E020EDE18D8A483D0030E0A6ED4
:1020520012508FEC18F07DD0020E1018D8A423D0A5
:102062001250010D0C0EF324D96E010EF420DA6E1B
:10207200DF50D8A46ED01250010D180EF324D96E81
:10208200010EF420DA6E020EDE18D8A462D0010E20
:102092000C6E1150F80F36EC1AF0030E0A6E125045
:1020A2008FEC18F056D01004D8A453D01150010D63
:1020B2000C0EF324D96E010EF420DA6E020EDE1835
:1020C200D8A414D01150010D180EF324D96E010EAC
:1020D200F420DA6E040EDE18D8A408D0010E0A6EBF
:1020E20011508FEC18F0BDEC15F033D01150010DEA
:1020F2000C0EF324D96E010EF420DA6EDF50D8A450
:1021020028D01150010D180EF324D96E010EF420BF
:10211200DA6E020EDE18D8A41CD01250010D0C0E7D
:10212200F324D96E010EF420DA6EDF50D8A411D058
:102132001250010D180EF324D96E010EF420DA6E3E
:10214200020EDE18D8A405D0030E0A6E12508FECD0
:1021520018F0112A57D70F2A5D500F5CD8B0120021
:1021620045D75950D8B4B8D00001C351110D050E4E
:10217200F326000EF422680EF324D96E010EF42029
:10218200DA6E000110EE05F06051E1266151E222A3
:10219200DFCFE7FF0001C351110D680EF324D96EA2
:1021A200010EF420DA6E60C0E1FF61C0E2FFDFCF12
:1021B200E7FF0001C351110D0F0EF326000EF422AA
:1021C200680EF324D96E010EF420DA6E000110EECF
:1021D2000FF06051E1266151E222DFCFE7FF0001FB
:1021E200C351110D010EF326000EF422680EF324E2
:1021F200D96E010EF420DA6E000110EE01F060518A
:10220200E1266151E222DECFE6FFDECFE6FFDECF3E
:10221200E6FFDECFE6FF0001C351110D0E0EF326DD
:10222200000EF422680EF324D96E010EF420DA6E49
:10223200000110EE0EF06051E1266151E222DFCF83
:10224200E7FF000E0001646F31D000016451010DFF
:10225200060EF326000EF422680E0001626F010ED4
:102262000001636FF35000016227F4500001632301
:102272000001C351110DF35000016225D96EF450D3
:1022820000016321DA6E00016451010D060EF3268E
:10229200000EF422F35000016025E16EF4500001BB
:1022A2006121E26EDFCFE7FF0001642B000120EE27
:1022B20005F06051D9266151DA22DE500001645DD9
:1022C200D8A0C3D7F09A0001C329030B0001C36F42
:1022D2005906F08A000E1200010E12005950D8B4AD
:1022E200A6D00001C351110D050EF326000EF422F3
:1022F200680EF324D96E010EF420DA6E10EE05F0AA
:102302000150E1260250E222DFCFE7FF0001C35174
:10231200110D680EF324D96E010EF420DA6E01C09D
:10232200E1FF02C0E2FFDFCFE7FF0001C351110D61
:102332000F0EF326000EF422680EF324D96E010E5E
:10234200F420DA6E10EE0FF00150E1260250E22284
:10235200DFCFE7FF0001C351110D010EF326000E7E
:10236200F422680EF324D96E010EF420DA6E10EE18
:1023720001F00150E1260250E222DECFE6FFDECF7D
:10238200E6FFDECFE6FFDECFE6FF0001C351110D0F
:102392000E0EF326000EF422680EF324D96E010EFF
:1023A200F420DA6E10EE0EF00150E1260250E22225
:1023B200DFCFE7FF000E056E26D00550010D060E99
:1023C200F326000EF422680E036E010E046EF35023
:1023D2000326F45004220001C351110DF3500324CB
:1023E200D96EF4500420DA6E0550010D060EF32664
:1023F200000EF422F3500124E16EF4500220E26E4A
:10240200DFCFE7FF052A20EE05F00150D926025062
:10241200DA22DE50055CD8A0D0D7F09A0001C32999
:10242200030B0001C36F5906F08A000E1200010E61
:102432001200326E32C034F0020E286E3450050F94
:10244200296E000E356E1CD03550010D060EF32696
:10245200000EF422F3502424D96EF4502520DA6EB3
:102462003550266E276A020E2626000E2722280ED7
:102472002624E16E000E2720E26EDFCFE7FF352A29
:1024820020EE05F02450D9262550DA22DE50355CA4
:10249200D8A0DAD7280E0D6E000E0E6E20EE05F0D3
:1024A2002450D9262550DA22DF50266E276A020EE2
:1024B2002626000E272226C00FF027C010F0000E9D
:1024C20010BEFF0E116E126EE3EC19F024C0D9FF9C
:1024D20025C0DAFFDF50136E20EE01F02450D9261A
:1024E2002550DA22DECF14F0DECF15F0DECF16F063
:1024F200DECF17F0345015EC15F020EE05F0245025
:10250200D9262550DA22DF50336E20EE0EF0245009
:10251200D9262550DA22DE04D8A409D020EE05F00F
:102522002450D9262550DA22DF504009336E020E9C
:10253200286E3450040F296E33C02AF0280E0D6E17
:10254200000E0E6E030E0F6E000E106E000E116E58
:10255200000E126EE3EC19F012003E6E30C013F062
:1025620031C014F0010E3024156E000E3120166EAB
:102572003E508BEC0DF0030E346E3E04356E340E7D
:102582000D6E000E0E6E030E0F6E000E106E000E1C
:10259200116E000E126EF6EC19F020EE0EF03050B5
:1025A200D9263150DA22000EDF6E36A608D020EE90
:1025B2000EF03050D9263150DA22010EDF6E030EB2
:1025C200346E3E50040F356E340E0D6E000E0E6EDC
:1025D200030E0F6E000E106E000E116E000E126EC4
:1025E200F6EC19F020EE05F03050D9263150DA22FF
:1025F20036500F0BDF6E030E346E3E50050F356EF4
:10260200340E0D6E000E0E6E20EE05F03050D926FF
:102612003150DA22DF50326E336A020E3226000E59
:10262200332232C00FF033C010F0000E10BEFF0E86
:10263200116E126EF6EC19F0060E3024016E000EC9
:102642003120026E360E036E000E046E20EE05F08F
:102652003050D9263150DA22DF50326E3250056EB8
:10266200066A2BEC19F0120000017A6F73C081F038
:1026720074C082F0020E00017B6F7AC07CF0000110
:102682007205D8A434D081C080F0000182510001CB
:102692007F6F75C081F076C082F000018151030B1B
:1026A20000017E6F81C077F01C0E000177170001D8
:1026B200D89077370001D89077370001D8907735D6
:1026C20000017E2700017E8781C077F082C078F00A
:1026D200050E0001796F0001D8907833773300013D
:1026E200792FF9D70001775100017D6F2CD081C07D
:1026F20077F082C078F00001D89078337733000108
:10270200D890783377330001D8907833773300014B
:10271200775100017D6F81C077F0070E00017717B6
:10272200050E0001786F0001D89077370001782FED
:10273200FAD70001775100017E6F000E0001806F11
:10274200000E00017F6F7B0E00016C6F000E000116
:102752006D6F060E00016E6F000E6F6F000E706FD0
:10276200000E716FB9EC19F01200000E116E0B0E13
:10277200116401D012001150010D0C0EF324D96E18
:10278200010EF420DA6EDF500E6E1150010D000EB4
:10279200F324D96E010EF420DA6EDF500F6E115061
:1027A200010D180EF324D96E010EF420DA6EDF50FB
:1027B200106E4DD0080E11600AD0050E1018D8A464
:1027C20053D0000E0A6E11508FEC18F04DD0080E47
:1027D2001018D8A449D0000E0A6E11508FEC18F0D0
:1027E20043D0070E11641CD0040E1018D8A418D0C0
:1027F20011508CEC16F00D6E1150010D000EF324E9
:10280200D96E010EF420DA6E0DC0DFFF1150010DFA
:10281200000EF324D96E010EF420DA6EDF500F6E33
:10282200040E1018D8A420D00F50D8A41DD0010E29
:102832000A6E11508FEC18F017D0020E1018D8A49F
:1028420013D0020E0A6E11508FEC18F00DD00E50FC
:10285200000AD8B409D0010AD8B4ACD7030AD8B454
:10286200C0D7010AD8B4E9D7112A81D7A00E416E88
:10287200410E0D6E000E0E6E020E0F6E000E106EE9
:10288200000E116E000E126EF6EC19F042A034D05A
:102892003FC030F040C031F0610EAEEC12F0050ED8
:1028A200416E2C0E426E010E436E000E446E410EBE
:1028B2000D6E000E0E6E040E0F6E000E106E000EE8
:1028C200116E000E126EE3EC19F0050E416E2B0E26
:1028D200426E010E436E4468410E0D6E000E0E6E86
:1028E200040E0F6E000E106E000E116E000E126EB0
:1028F200E3EC19F0000E120042A233D03FC030F0D8
:1029020040C031F0710EAEEC12F0050E416E2C0E8D
:10291200426E020E436E000E446E410E0D6E000EAC
:102922000E6E040E0F6E000E106E000E116E000E73
:10293200126EE3EC19F0050E416E2B0E426E020E82
:10294200436E4468410E0D6E000E0E6E040E0F6E45
:10295200000E106E000E116E000E126EE3EC19F0F6
:10296200C9D7040E12000001626F000E0001636FEE
:10297200000E0001646F0B0E0001646501D04ED0A1
:1029820000016451010DAF0EF324D96E000EF42044
:10299200DA6E00016251DE18D8A403D0010E0001E4
:1029A200636F00016305D8A422D00B0E000164619D
:1029B2001ED0000164510001606F616B010E0001C5
:1029C2006027000E6123AF0E00016025D96E000E54
:1029D20000016121DA6E00016451010DAF0EF32492
:1029E200E16E000EF420E26EDFCFE7FF14D00001AB
:1029F2006305D8A410D00B0E00016419D8A40BD023
:102A020000016451010DAF0EF324D96E000EF420C3
:102A1200DA6EFF0EDF6E0001642BADD70001630595
:102A2200D8A412005D0612001B6E14C022F015C05D
:102A320023F0020E1C6E1BC01DF01304D8A425D077
:102A420022C021F02350206E16C022F017C023F0BE
:102A52002250030B1F6E22C018F01C0E1816D890BD
:102A62001836D8901836D89018341F261F8622C0E0
:102A720018F023C019F0050E1A6ED89019321832C8
:102A82001A2EFBD718501E6E1FD022C018F023C07A
:102A920019F0D89019321832D89019321832D890C9
:102AA2001932183218501E6E22C018F0070E18166E
:102AB200050E196ED8901836192EFCD718501F6EB5
:102AC200000E216E000E206E1C0E0D6E000E0E6E9C
:102AD200060E0F6E000E106E000E116E000E126EBC
:102AE200E3EC19F012003A0EC66E8C92000E000151
:102AF200686F000E696F000E6A6F000E6B6F28D050
:102B02000001685100016025D96E00016951000180
:102B12006121DA6EDF50C96E9EA6FED79E96000135
:102B2200625100016311D8B40CD000016851000158
:102B32006225D96E0001695100016321DA6EC9CFA5
:102B4200DFFF010E00016827000E69236A236B2351
:102B5200000164510001685D00016551000169597D
:102B62000001665100016A590001675100016B5969
:102B7200D8A0C6D78C821200AFC008F0000E096E32
:102B820018D00950016E026A010E0126000E0222BF
:102B9200AF0E0124D96E000E0220DA6E0950010D2B
:102BA200AF0EF324E16E000EF420E26EDFCFE7FFFA
:102BB200092AFF0E016EFF0E026E5D50036E046A5B
:102BC20001500326025004220950056E066A035082
:102BD200055C0650800A076E0450800A0758D8A088
:102BE200D0D7FF0E016EFF0E026E5D50036E046AB7
:102BF2000150032602500422AF0E0324D96E000EA8
:102C02000420DA6E08C0DFFF1200F7C016F0F8C029
:102C120017F0F9C018F013C0D9FF14C0DAFF000E84
:102C2200DF6E000E1C6E020E1C6401D030D0030E4B
:102C3200196E1C50010D160EF324D96E000EF420ED
:102C4200DA6EDF501A6E190E0D6E000E0E6E030E46
:102C52000F6E000E106E000E116E000E126EF6EC6C
:102C620019F01BB612D01C50010D160EF324D96EAA
:102C7200000EF420DA6EDF50156E152813C0D9FF4E
:102C820014C0DAFFDF6E000E12001C2ACCD7020E2F
:102C92001200390E00019C6F100E00019D6FAC0EE8
:102CA20000019E6F010E00019F6F6CEC19F0F28C17
:102CB200F28E64EC18F00001C66F0F0E0101AC6FCA
:102CC200000EAD6F000EAE6F000EAF6F0001C65169
:102CD2000101B46FB56BB66BB76B390E00019C6F17
:102CE200100E00019D6FAC0E00019E6F010E0001DF
:102CF2009F6F6CEC19F027EC0BF0D59CD59AD5960A
:102D0200D580D582D584F294F28AE10ED76E7B0EFD
:102D1200D66ED58E12000C6E000E066E020E076E77
:102D2200800E086EFF0E096E0C500A6E0B6A0A3A8C
:102D32000B3AF00E0B160A500F0B0B12F00E0A167E
:102D420008500A2609500B220001C6510A12000E31
:102D52000B1206500A1207500B120AC0C8F00BC021
:102D6200C9F00001000EC9BFFF0ECA6FCB6F010E82
:102D72000001D56FC70E016E000E026E34EC0FF02B
:102D8200D80E016E000E026E6FEC11F00009D8A48D
:102D9200F7D70001DE511200000E0001606F0B0E2A
:102DA2000001606501D0120000016051010D180E92
:102DB200F324D96E010EF420DA6E000EDF6E0001EC
:102DC2006051010D0C0EF324D96E010EF420DA6E5F
:102DD200000EDF6E00016051010D000EF324D96E6A
:102DE200010EF420DA6E000EDF6E00016051010D5B
:102DF200AF0EF324D96E000EF420DA6EFF0EDF6EF2
:102E02000001602BCCD7540EF66E340EF76E000E16
:102E1200F86E00EEE9F010EE17F00900F5CFEEFFC4
:102E2200E550E150FAE1800EF66E340EF76E000EB8
:102E3200F86E0900F5CF5EF002EE00F0900EEE6A39
:102E4200E806FDE101EE00F0CD0EEE6AE806FDE1D6
:102E520000EEAFF03A0EEE6AE806FDE15D6A5C6AEA
:102E62005B6A5A6A596A586A5F905F920001B1EFD1
:102E72000CF03A0EC66E8C92000E096E000E0A6EAF
:102E8200000E0B6E000E0C6E1DD009500124D96E7F
:102E92000A500220DA6EDF50C96E9EA6FED79E96B9
:102EA20003500410D8B408D009500324D96E0A5034
:102EB2000420DA6EC9CFDFFF010E0926000E0A22B6
:102EC2000B220C220550095C06500A5807500B5879
:102ED20008500C58D8A0D9D78C821200C00E00011D
:102EE200726F720E00016C6F000E00016D6F010EA9
:102EF20000016E6F000E6F6F000E706F000E716F2B
:102F0200B9EC19F0000E0001736F000E746F000E21
:102F1200756F000E766F000176510001751110E198
:102F2200100E0001735D270E00017459D8B0120013
:102F3200010E00017327000E742375237623EBD74D
:102F420012000B6E000E076E010E086E0B50096E1A
:102F52000A6A093A0A3AF00E0A1609500F0B0A12C7
:102F6200F00E09160001C6510912000E0A1207508E
:102F7200091208500A1209C0C8F00AC0C9F00001BB
:102F8200000EC9BFFF0ECA6FCB6F000E0001D56FD6
:102F920006C0CDF0010E0001CC6FC70E016E000E0F
:102FA200026E34EC0FF012003D0E136E000E146E22
:102FB20006EC16F03C6E020E3C18D8B4F5D7020EA1
:102FC2003C18D8B4120036C024F037C025F03D506A
:102FD2001AEC12F0020E386E3D04396E20EE10F03B
:102FE2003650D9263750DA22DF5008093A6E380EA9
:102FF2000D6E000E0E6E030E0F6E000E106E000EA2
:10300200116E000E126EE3EC19F01200FDC017F003
:10301200FEC018F0FFC019F0F3C013F0F4C014F0B2
:10302200F5C015F0F6C016F0170E0D6E000E0E6EFE
:10303200030E0F6E000E106E000E116E000E126E59
:10304200F6EC19F019C01AF01A501C0B156E130E7B
:103052000D6E000E0E6E040E0F6E000E106E000E40
:10306200116E000E126EF6EC19F01A501200096E73
:103072000950076E086A073A083AF00E0816075018
:103082000F0B0812F00E07160001C6510712000EB0
:103092000812078E07C0C8F008C0C9F00001000E70
:1030A200C9BFFF0ECA6FCB6F000E0001D56F06C0FD
:1030B200CDF0010E0001CC6FC70E016E000E026E44
:1030C20034EC0FF01200000E0001656F0F0E0001CC
:1030D200C86F050EC96F000ECA6F000ECB6F4DECA4
:1030E20019F0010E0001D56FC70E0001606F000ECE
:1030F2000001616F61EC0EF0D80E0001606F000EEE
:103102000001616FB2EC10F00009D8A4F5D7DEC05F
:1031120065F04DEC19F00001655112000B6E0B5079
:10312200010D180EF324D96E010EF420DA6E000E92
:10313200DF6E0B50010D0C0EF324D96E010EF4203C
:10314200DA6E0AC0DFFF080E0B6006D00AC006F076
:103152000B50BAEC18F01200070E0B6412000C0EA2
:103162000B6012000AC006F00B50F80F38EC18F092
:103172001200096E0950076E086A073A083AF00E03
:10318200081607500F0B0812F00E07160001C65161
:103192000712000E081207C0C8F008C0C9F00001EB
:1031A200000EC9BFFF0ECA6FCB6F000E0001D56FB4
:1031B20006C0CDF0010E0001CC6FC70E016E000EED
:1031C200026E34EC0FF0120007EC18F0496E49C0A1
:1031D20048F0030E4816D8A409EC19F049C048F08B
:1031E2001C0E4816D8B40BD049B85E2A49B65E2ADE
:1031F20049A405D05E2A03D01AEC1AF05E063DEC13
:103202001AF00009D8B412005E50D8B41200F4D7F4
:10321200000E456E000E476E010E476401D012008B
:103222005A50110D680EF3243F6E010EF420406EC9
:1032320037EC14F0466E040E596008D04650D8A4FC
:1032420007D0592A5A28030B5A6E02D0010E456E36
:10325200472AE2D703C009F004C00AF001C007F010
:1032620002C008F010D009C0D9FF0AC0DAFFDF504F
:103272000B6E094A0A2A07C0D9FF08C0DAFF0BC041
:10328200DFFF074A082A0506D8A006060528EBE153
:103292000628D8B41200E7D7000E0001616F000EB5
:1032A200606F000161BF08D00001615113E1040E9B
:1032B2000001605DD8B01200DE0E00016025D96EFB
:1032C200000E00016121DA6E000EDF6E0001604B1C
:1032D200612BE7D71200979C979E8E8C8E9E9488C6
:1032E200949A94969592C79CC6883A0EC66EC68AE0
:1032F2009CC083F09DC084F09EC085F09FC086F084
:1033020021EC08F0F08AF196F28CF28E12000001A4
:10331200605100016203F3CF64F0F4CF65F0000165
:10332200605100016303F350000165270001615100
:1033320000016203F3500001652764C060F065C0BC
:1033420061F01200000E136E0B0E136401D00BD04D
:103352001350010D180EF324D96E010EF420DA6E0B
:10336200DF2A132AF1D7B6EC13F0F4EC0FF01200B7
:103372006CC060F06DC061F0000E0001626F000E63
:103382000001636F6EC064F06FC065F070C066F0DC
:1033920071C067F074EC15F01200046E04500C0D4D
:1033A200000E026E020E036EF3500226F450032248
:1033B2000150010DF3500224D96EF4500320DA6E4D
:1033C200DF5012000DC001F00EC002F0000E036EBD
:1033D200000E046E0FC005F010C006F011C007F019
:1033E20012C008F03AEC17F012000DC001F00EC046
:1033F20002F00DC003F00EC004F00FC005F010C0C3
:1034020006F011C007F012C008F03AEC17F01200F3
:103412000001606F0C0E5D6012005D50010DAF0E79
:10342200F324D96E000EF420DA6E60C0DFFF5D2A4D
:1034320012005850110D240EF324366E010EF420A2
:10344200376ED5EC17F05828030B586E0001C107F0
:103452001200030000000000050FE080052C1C0094
:09346200304050020000032C0070
:10346C000D6E0CC006F00D50A2EC17F0120000010E
:05347C00C15112000324
:020000040020DA
:08000000FFFFFFFFFFFFFFFF00
:020000040030CA
:0E00000008181000F98A01FFFFC0FFE0FF4062
:00000001FF
