:0400000047EF00F0D6
:100008005F82FACF4AF0FBCF4BF0E9CF4CF0EACF52
:100018004DF0E1CF4EF0E2CF4FF0D9CF50F0DACF2C
:1000280051F0F3CF52F0F4CF53F0F6CF54F0F7CFAE
:1000380055F0F8CF56F0F5CF57F0F0B4F0AA05D048
:10004800F094DCEC11F081A6F08457C0F5FF56C09F
:10005800F8FF55C0F7FF54C0F6FF53C0F4FF52C075
:10006800F3FF51C0DAFF50C0D9FF4FC0E2FF4EC0C6
:10007800E1FF4DC0EAFF4CC0E9FF4BC0FBFF4AC09F
:0A008800FAFF5F921100B7EF10F0CD
:1010000000000100030101010001020301010101CF
:1010100001000301010103010003010101070102B5
:10102000030101010F01020301010113010606047E
:1010300001011F0107070701010701000301010169
:0110400000AF
:10104200E4C095F0E5C096F0E6C097F0E7C098F0EE
:10105200EFC099F0F0C09AF0F1C09BF0EBEC10F009
:10106200950E00016C6F000E00016D6F040E000101
:101072006E6F000E6F6F000E706F000E716F5EEC80
:1010820012F02A0E00019A6F83C0F6FF84C0F7FFA8
:101092000800F5CF87F0010E000183250001886F5B
:1010A200000E000184210001896F88C0F6FF89C00B
:1010B200F7FF0800F5CF8AF0060E00018B6F0001E2
:1010C200D8908A3700018B2FFAD700018A5100018C
:1010D200871100019B6F990E00016C6F000E0001D9
:1010E2006D6F030E00016E6F000E6F6F000E706F5A
:1010F200000E716F5EEC12F0290E00019A6F020E63
:10110200000183250001876F000E00018421000188
:10111200886F87C0F6FF88C0F7FF0800F5CF89F017
:10112200060E0001832500018A6F000E0001842152
:1011320000018B6F8AC0F6FF8BC0F7FF0800F5CF66
:101142008CF0000E8CB1800E8C6F050E0001832591
:1011520000018D6F000E0001842100018E6F8DC091
:10116200F6FF8EC0F7FF0800F5CF8FF0060E0001E4
:10117200906F0001D8908F370001902FFAD7030E9D
:10118200000183250001916F000E000184210001FE
:10119200926F91C0F6FF92C0F7FF0800F5CF93F06F
:1011A2000001D89093370001D89093370001D8906E
:1011B200933500018F1100018C110001891100018A
:1011C2009B6F990E00016C6F000E00016D6F030E94
:1011D20000016E6F000E6F6F000E706F000E716F68
:1011E2005EEC12F0280E00019A6F040E00018325B6
:1011F2000001876F000E000184210001886F87C003
:10120200F6FF88C0F7FF0800F5CF89F0010E000154
:10121200832500018A6F000E0001842100018B6F7B
:101222008AC0F6FF8BC0F7FF0800F5CF8CF0060EE0
:1012320000018D6F0001D8908C3700018D2FFAD7F5
:1012420000018C510001891100019B6F990E000170
:101252006C6F000E00016D6F030E00016E6F000EC9
:101262006F6F000E706F000E716F5EEC12F0000176
:1012720020EE20F08551D9268651DA22DF50000176
:10128200726F85C0D9FF86C0DAFFDECF73F0DECF82
:1012920074F0DECF75F0DECF76F0200E98EC0EF013
:1012A200000120EE20F08551D9268651DA22DF5046
:1012B2000001726F000120EE04F08551D92686519B
:1012C200DA22DECF73F0DECF74F0DECF75F0DECF40
:1012D20076F0240E98EC0EF0000120EE20F08551FD
:1012E200D9268651DA22DF500001726F000120EE0A
:1012F20008F08551D9268651DA22DECF73F0DECF8F
:1013020074F0DECF75F0DECF76F0000E98EC0EF0C2
:10131200000120EE20F08551D9268651DA22DF50D5
:101322000001726F000120EE0CF08551D926865122
:10133200DA22DECF73F0DECF74F0DECF75F0DECFCF
:1013420076F0040E98EC0EF0000120EE20F08551AC
:10135200D9268651DA22DF500001726F000120EE99
:1013620010F08551D9268651DA22DECF73F0DECF16
:1013720074F0DECF75F0DECF76F0080E98EC0EF04A
:10138200000120EE20F08551D9268651DA22DF5065
:101392000001726F000120EE14F08551D9268651AA
:1013A200DA22DECF73F0DECF74F0DECF75F0DECF5F
:1013B20076F0100E98EC0EF0000120EE20F0855130
:1013C200D9268651DA22DF500001726F000120EE29
:1013D20018F08551D9268651DA22DECF73F0DECF9E
:1013E20074F0DECF75F0DECF76F0140E98EC0EF0CE
:1013F200000120EE20F08551D9268651DA22DF50F5
:101402000001726F000120EE1CF08551D926865131
:10141200DA22DECF73F0DECF74F0DECF75F0DECFEE
:1014220076F0180E98EC0EF0000E00019B6F000E85
:101432000001946F0D0E0001946501D045D00001AA
:101442009451300F00019A6F990E00016C6F000EDB
:1014520000016D6F030E00016E6F000E6F6F000EC4
:10146200706F000E716F5EEC12F000019451400F2C
:1014720000019A6F990E00016C6F000E00016D6FF2
:10148200030E00016E6F000E6F6F000E706F000E84
:10149200716F5EEC12F000019451500F00019A6FCF
:1014A200990E00016C6F000E00016D6F030E0001BA
:1014B2006E6F000E6F6F000E706F000E716F5EEC3C
:1014C20012F00001942BB6D7000E00019B6F600E44
:1014D20000019A6F990E00016C6F000E00016D6F92
:1014E200030E00016E6F000E6F6F000E706F000E24
:1014F200716F5EEC12F0700E00019A6F990E00018E
:101502006C6F000E00016D6F030E00016E6F000E16
:101512006F6F000E706F000E716F5EEC12F0600E56
:101522000001966F640E0001976F000120EE20F01B
:101532008551D9268651DA22DF50D8A402D0240E52
:1015420001D0440E0001986F950E00016C6F000EE1
:1015520000016D6F040E00016E6F000E6F6F000EC2
:10156200706F000E716F5EEC12F0700E0001966FDC
:10157200600E0001976F000120EE20F08551D92600
:101582008651DA22DF50D8A402D0200E01D0400EBC
:101592000001986F950E00016C6F000E00016D6FD7
:1015A200040E00016E6F000E6F6F000E706F000E62
:1015B200716F5EEC12F0050E0001956F2B0E0001AB
:1015C200966F1F0E0001976F1F0E0001986F950E08
:1015D20000016C6F000E00016D6F040E00016E6F52
:1015E200000E6F6F000E706F000E716F5EEC12F0E6
:1015F200050E0001956F0F0E0001966FE00E0001BF
:10160200976F000E0001986F950E00016C6F000E2F
:1016120000016D6F040E00016E6F000E6F6F000E01
:10162200706F000E716F5EEC12F01200296E20EEE8
:10163200DEF010EE2AF0050EDBCFE3FFE806FCE257
:1016420029C02BF013C0D9FF14C0DAFF000EDF6EE1
:1016520015C0D9FF16C0DAFFDE6ADE6ADE6ADD6A0D
:101662002A0E0D6E000E0E6E060E0F6E000E106E1E
:10167200000E116E000E126E86EC12F02DC017F0E5
:10168200050E186ED8901732182EFCD72C50196EF2
:101692001A6AD89019361A36D89019361A36D8904E
:1016A20019361A36175019241B6E000E1A201C6E9A
:1016B2001D6A1CBE1D061D501E6E15C0D9FF16C028
:1016C200DAFF1BC0DEFF1CC0DEFF1DC0DEFF1EC036
:1016D200DEFF2DA6120015C0D9FF16C0DAFFDECF3D
:1016E20017F0DECF18F0DECF19F0DECF1AF0020EBF
:1016F200D8901736183619361A36E82EF9D72DC073
:101702001BF0030E1B161B5017241C6E000E182014
:101712001D6E000E19201E6E000E1A201F6E15C0BF
:10172200D9FF16C0DAFF1CC0DEFF1DC0DEFF1EC0DF
:10173200DEFF1FC0DEFF15C0D9FF16C0DAFF100E94
:10174200D890DE36DE36DE36DD36D906D906E82E0C
:10175200F7D715C0D9FF16C0DAFFDECF17F0DECFFC
:1017620018F0DECF19F0DECF1AF02E501C6E1B6A75
:101772001BC01DF01CC01EF0000E1EBEFF0E1F6E11
:10178200206E2F501D24216E000E1E20226E000E90
:101792001F20236E000E2020246E17502124256E58
:1017A20018502220266E19502320276E1A5024200A
:1017B200286E15C0D9FF16C0DAFF25C0DEFF26C08D
:1017C200DEFF27C0DEFF28C0DEFF13C0D9FF14C032
:1017D200DAFF010EDF6E1200040E0001A861120092
:1017E200000120EE05F06051D9266151DA22000194
:1017F200A951110D050EF326000EF422000EF3245A
:10180200E16E010EF420E26EDFCFE7FF60C0D9FF88
:1018120061C0DAFF0001A951110D000EF324E16E3F
:10182200010EF420E26EDFCFE7FF000120EE0FF0A1
:101832006051D9266151DA220001A951110D0F0E12
:10184200F326000EF422000EF324E16E010EF420C2
:10185200E26EDFCFE7FF000120EE01F06051D926F2
:101862006151DA220001A951110D010EF326000E79
:10187200F422000EF324E16E010EF420E26EDECFBC
:10188200E6FFDECFE6FFDECFE6FFDECFE6FF0001BA
:1018920020EE0EF06051D9266151DA220001A951E1
:1018A200110D0E0EF326000EF422000EF324E16E4B
:1018B200010EF420E26EDFCFE7FF000120EE10F010
:1018C2006051D9266151DA220001A951110D100E81
:1018D200F326000EF422000EF324E16E010EF42032
:1018E200E26EDFCFE7FF000E0001646F31D000012E
:1018F2006451010D060EF326000EF422F35000018E
:101902006025D96EF45000016121DA6E0001645144
:10191200010D060EF326000EF422000E0001626F86
:10192200010E0001636FF35000016227F4500001C1
:1019320063230001A951110DF35000016225E16EEC
:10194200F45000016321E26EDFCFE7FF0001642B58
:10195200000120EE05F06051D9266151DA22DE50F5
:101962000001645DD8A0C3D7F09A0001A82B000142
:10197200A929030B0001A96FF08AF08412005C50C0
:10198200D8B4B8D00001AA51110D050EF326000EED
:10199200F422440EF324D96E010EF420DA6E000113
:1019A20010EE05F06051E1266151E222DFCFE7FF40
:1019B2000001AA51110D440EF324D96E010EF42038
:1019C200DA6E60C0E1FF61C0E2FFDFCFE7FF000136
:1019D200AA51110D0F0EF326000EF422440EF32429
:1019E200D96E010EF420DA6E000110EE0FF0605194
:1019F200E1266151E222DFCFE7FF0001AA51110D7A
:101A0200010EF326000EF422440EF324D96E010EC9
:101A1200F420DA6E000110EE01F06051E12661510E
:101A2200E222DECFE6FFDECFE6FFDECFE6FFDECF4D
:101A3200E6FF0001AA51110D0E0EF326000EF4224C
:101A4200440EF324D96E010EF420DA6E000110EE7A
:101A52000EF06051E1266151E222DFCFE7FF000E76
:101A62000001646F31D000016451010D060EF326AE
:101A7200000EF422440E0001626F010E0001636F3A
:101A8200F35000016227F450000163230001AA51C0
:101A9200110DF35000016225D96EF450000163214B
:101AA200DA6E00016451010D060EF326000EF422D7
:101AB200F35000016025E16EF45000016121E26EF5
:101AC200DFCFE7FF0001642B000120EE05F060513B
:101AD200D9266151DA22DE500001645DD8A0C3D755
:101AE200F09A0001AA29030B0001AA6F5C06F08A92
:101AF200000E1200010E1200326E32C034F0020EDD
:101B0200286E3450050F296E000E356E1CD03550EC
:101B1200010D060EF326000EF422F3502424D96E92
:101B2200F4502520DA6E3550266E276A020E2626DC
:101B3200000E2722280E2624E16E000E2720E26ED8
:101B4200DFCFE7FF352A20EE05F02450D9262550B5
:101B5200DA22DE50355CD8A0DAD7280E0D6E000EE0
:101B62000E6E20EE05F02450D9262550DA22DF50E1
:101B7200266E276A020E2626000E272226C00FF0A6
:101B820027C010F0000E10BEFF0E116E126E73EC25
:101B920012F024C0D9FF25C0DAFFDF50136E20EE09
:101BA20001F02450D9262550DA22DECF14F0DECF00
:101BB20015F0DECF16F0DECF17F0345096EC0FF0B2
:101BC20020EE05F02450D9262550DA22DF50336E5C
:101BD20020EE0EF02450D9262550DA22DE04D8A4B5
:101BE20009D020EE05F02450D9262550DA22DF5004
:101BF2004009336E020E286E3450040F296E33C032
:101C02002AF0280E0D6E000E0E6E030E0F6E000EE1
:101C1200106E000E116E000E126E73EC12F01200B6
:101C22003E6E30C013F031C014F0010E3024156E38
:101C3200000E3120166E3E5017EC0BF0030E346E80
:101C42003E04356E340E0D6E000E0E6E030E0F6ED8
:101C5200000E106E000E116E000E126E86EC12F067
:101C620020EE0EF03050D9263150DA22000EDF6E0F
:101C720036A608D020EE0EF03050D9263150DA22A6
:101C8200010EDF6E030E346E3E50040F356E340EBD
:101C92000D6E000E0E6E030E0F6E000E106E000E15
:101CA200116E000E126E86EC12F020EE05F030502E
:101CB200D9263150DA2236500F0BDF6E030E346E06
:101CC2003E50050F356E340E0D6E000E0E6E20EE78
:101CD20005F03050D9263150DA22DF50326E336AA5
:101CE200020E3226000E332232C00FF033C010F043
:101CF200000E10BEFF0E116E126E86EC12F0060E72
:101D02003024016E000E3120026E360E036E000E7C
:101D1200046E20EE05F03050D9263150DA22DF5021
:101D2200326E3250056E066A22EC12F01200000189
:101D32007A6F73C081F074C082F0020E00017B6F73
:101D42007AC07CF000017205D8A434D081C080F042
:101D52000001825100017F6F75C081F076C082F070
:101D620000018151030B00017E6F81C077F01C0ED0
:101D7200000177170001D89077370001D8907737A4
:101D82000001D890773500017E2700017E8781C04F
:101D920077F082C078F0050E0001796F0001D890CB
:101DA200783377330001792FF9D700017751000199
:101DB2007D6F2CD081C077F082C078F00001D8907E
:101DC200783377330001D890783377330001D89095
:101DD200783377330001775100017D6F81C077F04E
:101DE200070E00017717050E0001786F0001D890E9
:101DF20077370001782FFAD70001775100017E6F03
:101E0200000E0001806F000E00017F6F7B0E00014B
:101E12006C6F000E00016D6F060E00016E6F000EFA
:101E22006F6F000E706F000E716F5EEC12F0120099
:101E3200A00E416E410E0D6E000E0E6E020E0F6E62
:101E4200000E106E000E116E000E126E86EC12F075
:101E520042A034D03FC030F040C031F0610E11ECEE
:101E62000EF0050E416E2C0E426E010E436E000EF8
:101E7200446E410E0D6E000E0E6E040E0F6E000EBD
:101E8200106E000E116E000E126E73EC12F0050E43
:101E9200416E2B0E426E010E436E4468410E0D6E72
:101EA200000E0E6E040E0F6E000E106E000E116EFE
:101EB200000E126E73EC12F0000E120042A233D02A
:101EC2003FC030F040C031F0710E11EC0EF0050E43
:101ED200416E2C0E426E020E436E000E446E410E97
:101EE2000D6E000E0E6E040E0F6E000E106E000EC2
:101EF200116E000E126E73EC12F0050E416E2B0E77
:101F0200426E020E436E4468410E0D6E000E0E6E5E
:101F1200040E0F6E000E106E000E116E000E126E89
:101F220073EC12F0C9D7040E12001B6E14C022F01B
:101F320015C023F0020E1C6E1BC01DF01304D8A4A2
:101F420025D022C021F02350206E16C022F017C0E7
:101F520023F02250030B1F6E22C018F01C0E18161D
:101F6200D8901836D8901836D89018341F261F8665
:101F720022C018F023C019F0050E1A6ED89019323B
:101F820018321A2EFBD718501E6E1FD022C018F01E
:101F920023C019F0D89019321832D8901932183259
:101FA200D8901932183218501E6E22C018F0070E3F
:101FB2001816050E196ED8901836192EFCD718501F
:101FC2001F6E000E216E000E206E1C0E0D6E000E96
:101FD2000E6E060E0F6E000E106E000E116E000ECB
:101FE200126E73EC12F012003A0EC66E8C92000E54
:101FF2000001686F000E696F000E6A6F000E6B6F52
:1020020028D00001685100016025D96E0001695194
:1020120000016121DA6EDF50C96E9EA6FED79E9640
:102022000001625100016311D8B40CD00001685163
:1020320000016225D96E0001695100016321DA6E47
:10204200C9CFDFFF010E00016827000E69236A2352
:102052006B23000164510001685D000165510001BC
:1020620069590001665100016A5900016751000176
:102072006B59D8A0C6D78C821200ECC016F0EDC006
:1020820017F0EEC018F013C0D9FF14C0DAFF000E2B
:10209200DF6E000E1C6E020E1C6401D030D0030EE7
:1020A200196E1C50010D160EF324D96E000EF42089
:1020B200DA6EDF501A6E190E0D6E000E0E6E030EE2
:1020C2000F6E000E106E000E116E000E126E86EC78
:1020D20012F01BB612D01C50010D160EF324D96E4D
:1020E200000EF420DA6EDF50156E152813C0D9FFEA
:1020F20014C0DAFFDF6E000E12001C2ACCD7020ECB
:1021020012003A0EC66E8C92000E096E000E0A6E16
:10211200000E0B6E000E0C6E1DD009500124D96EFC
:102122000A500220DA6EDF50C96E9EA6FED79E9636
:1021320003500410D8B408D009500324D96E0A50B1
:102142000420DA6EC9CFDFFF010E0926000E0A2233
:102152000B220C220550095C06500A5807500B58F6
:1021620008500C58D8A0D9D78C821200520EF66EA5
:10217200250EF76E000EF86E00EEDEF010EE17F090
:102182000900F5CFEEFFE550E150FAE1780EF66E68
:10219200250EF76E000EF86E0900F5CF5EF001EE27
:1021A20000F0880EEE6AE806FDE100EEA5F0390EB9
:1021B200EE6AE806FDE15D6A5C6A5B6A5A6A596A20
:1021C200586A5F905F92000EF86E100EF76E000173
:1021D200B5EF12F0C00E0001726F720E00016C6F4B
:1021E200000E00016D6F010E00016E6F000E6F6F29
:1021F200000E706F000E716F5EEC12F0000E0001A7
:10220200736F000E746F000E756F000E766F000113
:1022120076510001751110E1100E0001735D270E59
:1022220000017459D8B01200010E00017327000E8C
:10223200742375237623EBD712003D0E136E000E26
:10224200146E3EEC10F03C6E020E3C18D8B4F5D77A
:10225200020E3C18D8B4120036C024F037C025F064
:102262003D507DEC0DF0020E386E3D04396E20EECD
:1022720010F03650D9263750DA22DF5008093A6E6C
:10228200380E0D6E000E0E6E030E0F6E000E106EE7
:10229200000E116E000E126E73EC12F01200390E67
:1022A20000019C6F100E00019D6FAC0E00019E6F2D
:1022B200000E00019F6F44EC12F0B2EC11F000012D
:1022C200AB6F0F0E0001AC6F000EAD6F000EAE6F64
:1022D200000EAF6F0001AB510001B46FB56BB66B6E
:1022E200B76B390E00019C6F100E00019D6FAC0E92
:1022F20000019E6F000E00019F6F44EC12F012006D
:10230200F2C017F0F3C018F0F4C019F0E8C013F0EF
:10231200E9C014F0EAC015F0EBC016F0170E0D6E0E
:10232200000E0E6E030E0F6E000E106E000E116E7A
:10233200000E126E86EC12F019C01AF01A501C0B25
:10234200156E130E0D6E000E0E6E040E0F6E000E45
:10235200106E000E116E000E126E86EC12F01A5004
:102362001200000E0001656F0F0E0001CE6F050E08
:10237200CF6F000ED06F000ED16F000E0001D36F31
:10238200010E0001DB6FCD0E0001606F000E000137
:10239200616FEDEC0BF0CD0E0001606F000E0001DD
:1023A200616FC0EC0CF00009D8A4F5D7D3C065F07A
:1023B20000016551120081EC11F0496E49C048F0EC
:1023C200030E4816D8A400EC12F049C048F01C0EC7
:1023D2004816D8B40BD049B85E2A49B65E2A49A439
:1023E20005D05E2A03D099EC12F05E06B9EC12F029
:1023F2000009D8B412005E50D8B41200F4D7000E0F
:10240200456E000E476E010E476401D012005D500A
:10241200110D440EF3243F6E010EF420406E19ECB0
:102422000FF0466E040E5C6008D04650D8A407D068
:102432005C2A5D28030B5D6E02D0010E456E472AB1
:10244200E2D703C009F004C00AF001C007F002C0DD
:1024520008F010D009C0D9FF0AC0DAFFDF500B6EB6
:10246200094A0A2A07C0D9FF08C0DAFF0BC0DFFFFA
:10247200074A082A0506D8A006060528EBE1062821
:10248200D8B41200E7D7979C979E8E8C8E9E948824
:10249200949A94969592C79CC6883A0EC66EC68A3E
:1024A2009CC083F09DC084F09EC085F09FC086F0E2
:1024B20021EC08F0F08AF19612006CC060F06DC059
:1024C20061F0000E0001626F000E0001636F6EC0CA
:1024D20064F06FC065F070C066F071C067F0F5EC33
:1024E2000FF012000DC001F00EC002F0000E036EDC
:1024F200000E046E0FC005F010C006F011C007F008
:1025020012C008F082EC10F012000DC001F00EC0F3
:1025120002F00DC003F00EC004F00FC005F010C0B1
:1025220006F011C007F012C008F082EC10F01200A1
:102532005B50110D000EF324366E010EF420376E3F
:102542001EEC11F05B28030B5B6E0001A807120062
:10255200030000000000050FE080052C1C00304045
:0725620050020000032C00F1
:0F256A0050EC11F047EF00F00001A851120003F0
:020000040020DA
:08000000FFFFFFFFFFFFFFFF00
:020000040030CA
:0E00000008181000F98A01FFFFC0FFE0FF4062
:00000001FF
